{
  "_format": "hh-sol-artifact-1",
  "contractName": "NFTUpgrableV2",
  "sourceName": "contracts/NFTUpgrableV2.sol",
  "abi": [
    {
      "inputs": [],
      "stateMutability": "nonpayable",
      "type": "constructor"
    },
    {
      "anonymous": false,
      "inputs": [
        {
          "indexed": true,
          "internalType": "address",
          "name": "owner",
          "type": "address"
        },
        {
          "indexed": true,
          "internalType": "address",
          "name": "approved",
          "type": "address"
        },
        {
          "indexed": true,
          "internalType": "uint256",
          "name": "tokenId",
          "type": "uint256"
        }
      ],
      "name": "Approval",
      "type": "event"
    },
    {
      "anonymous": false,
      "inputs": [
        {
          "indexed": true,
          "internalType": "address",
          "name": "owner",
          "type": "address"
        },
        {
          "indexed": true,
          "internalType": "address",
          "name": "operator",
          "type": "address"
        },
        {
          "indexed": false,
          "internalType": "bool",
          "name": "approved",
          "type": "bool"
        }
      ],
      "name": "ApprovalForAll",
      "type": "event"
    },
    {
      "anonymous": false,
      "inputs": [
        {
          "indexed": true,
          "internalType": "address",
          "name": "previousOwner",
          "type": "address"
        },
        {
          "indexed": true,
          "internalType": "address",
          "name": "newOwner",
          "type": "address"
        }
      ],
      "name": "OwnershipTransferred",
      "type": "event"
    },
    {
      "anonymous": false,
      "inputs": [
        {
          "indexed": true,
          "internalType": "address",
          "name": "from",
          "type": "address"
        },
        {
          "indexed": true,
          "internalType": "address",
          "name": "to",
          "type": "address"
        },
        {
          "indexed": true,
          "internalType": "uint256",
          "name": "tokenId",
          "type": "uint256"
        }
      ],
      "name": "Transfer",
      "type": "event"
    },
    {
      "inputs": [
        {
          "internalType": "address",
          "name": "to",
          "type": "address"
        },
        {
          "internalType": "uint256",
          "name": "tokenId",
          "type": "uint256"
        }
      ],
      "name": "approve",
      "outputs": [],
      "stateMutability": "nonpayable",
      "type": "function"
    },
    {
      "inputs": [
        {
          "internalType": "address",
          "name": "owner",
          "type": "address"
        }
      ],
      "name": "balanceOf",
      "outputs": [
        {
          "internalType": "uint256",
          "name": "",
          "type": "uint256"
        }
      ],
      "stateMutability": "view",
      "type": "function"
    },
    {
      "inputs": [
        {
          "internalType": "uint256",
          "name": "tokenId",
          "type": "uint256"
        }
      ],
      "name": "getApproved",
      "outputs": [
        {
          "internalType": "address",
          "name": "",
          "type": "address"
        }
      ],
      "stateMutability": "view",
      "type": "function"
    },
    {
      "inputs": [],
      "name": "getBaseURI",
      "outputs": [
        {
          "internalType": "string",
          "name": "",
          "type": "string"
        }
      ],
      "stateMutability": "pure",
      "type": "function"
    },
    {
      "inputs": [],
      "name": "gettestID",
      "outputs": [
        {
          "internalType": "uint256",
          "name": "",
          "type": "uint256"
        }
      ],
      "stateMutability": "view",
      "type": "function"
    },
    {
      "inputs": [],
      "name": "initialize",
      "outputs": [],
      "stateMutability": "nonpayable",
      "type": "function"
    },
    {
      "inputs": [
        {
          "internalType": "address",
          "name": "owner",
          "type": "address"
        },
        {
          "internalType": "address",
          "name": "operator",
          "type": "address"
        }
      ],
      "name": "isApprovedForAll",
      "outputs": [
        {
          "internalType": "bool",
          "name": "",
          "type": "bool"
        }
      ],
      "stateMutability": "view",
      "type": "function"
    },
    {
      "inputs": [],
      "name": "name",
      "outputs": [
        {
          "internalType": "string",
          "name": "",
          "type": "string"
        }
      ],
      "stateMutability": "view",
      "type": "function"
    },
    {
      "inputs": [],
      "name": "owner",
      "outputs": [
        {
          "internalType": "address",
          "name": "",
          "type": "address"
        }
      ],
      "stateMutability": "view",
      "type": "function"
    },
    {
      "inputs": [
        {
          "internalType": "uint256",
          "name": "tokenId",
          "type": "uint256"
        }
      ],
      "name": "ownerOf",
      "outputs": [
        {
          "internalType": "address",
          "name": "",
          "type": "address"
        }
      ],
      "stateMutability": "view",
      "type": "function"
    },
    {
      "inputs": [],
      "name": "renounceOwnership",
      "outputs": [],
      "stateMutability": "nonpayable",
      "type": "function"
    },
    {
      "inputs": [
        {
          "internalType": "address",
          "name": "to",
          "type": "address"
        }
      ],
      "name": "safeMint",
      "outputs": [],
      "stateMutability": "nonpayable",
      "type": "function"
    },
    {
      "inputs": [
        {
          "internalType": "address",
          "name": "from",
          "type": "address"
        },
        {
          "internalType": "address",
          "name": "to",
          "type": "address"
        },
        {
          "internalType": "uint256",
          "name": "tokenId",
          "type": "uint256"
        }
      ],
      "name": "safeTransferFrom",
      "outputs": [],
      "stateMutability": "nonpayable",
      "type": "function"
    },
    {
      "inputs": [
        {
          "internalType": "address",
          "name": "from",
          "type": "address"
        },
        {
          "internalType": "address",
          "name": "to",
          "type": "address"
        },
        {
          "internalType": "uint256",
          "name": "tokenId",
          "type": "uint256"
        },
        {
          "internalType": "bytes",
          "name": "_data",
          "type": "bytes"
        }
      ],
      "name": "safeTransferFrom",
      "outputs": [],
      "stateMutability": "nonpayable",
      "type": "function"
    },
    {
      "inputs": [
        {
          "internalType": "address",
          "name": "operator",
          "type": "address"
        },
        {
          "internalType": "bool",
          "name": "approved",
          "type": "bool"
        }
      ],
      "name": "setApprovalForAll",
      "outputs": [],
      "stateMutability": "nonpayable",
      "type": "function"
    },
    {
      "inputs": [
        {
          "internalType": "bytes4",
          "name": "interfaceId",
          "type": "bytes4"
        }
      ],
      "name": "supportsInterface",
      "outputs": [
        {
          "internalType": "bool",
          "name": "",
          "type": "bool"
        }
      ],
      "stateMutability": "view",
      "type": "function"
    },
    {
      "inputs": [],
      "name": "symbol",
      "outputs": [
        {
          "internalType": "string",
          "name": "",
          "type": "string"
        }
      ],
      "stateMutability": "view",
      "type": "function"
    },
    {
      "inputs": [
        {
          "internalType": "uint256",
          "name": "tokenId",
          "type": "uint256"
        }
      ],
      "name": "tokenURI",
      "outputs": [
        {
          "internalType": "string",
          "name": "",
          "type": "string"
        }
      ],
      "stateMutability": "view",
      "type": "function"
    },
    {
      "inputs": [
        {
          "internalType": "address",
          "name": "from",
          "type": "address"
        },
        {
          "internalType": "address",
          "name": "to",
          "type": "address"
        },
        {
          "internalType": "uint256",
          "name": "tokenId",
          "type": "uint256"
        }
      ],
      "name": "transferFrom",
      "outputs": [],
      "stateMutability": "nonpayable",
      "type": "function"
    },
    {
      "inputs": [
        {
          "internalType": "address",
          "name": "newOwner",
          "type": "address"
        }
      ],
      "name": "transferOwnership",
      "outputs": [],
      "stateMutability": "nonpayable",
      "type": "function"
    }
  ],
  "bytecode": "0x60806040523480156200001157600080fd5b50600060019054906101000a900460ff166200003c5760008054906101000a900460ff16156200004d565b6200004c6200010960201b60201c565b5b6200008f576040517f08c379a0000000000000000000000000000000000000000000000000000000008152600401620000869062000171565b60405180910390fd5b60008060019054906101000a900460ff161590508015620000e0576001600060016101000a81548160ff02191690831515021790555060016000806101000a81548160ff0219169083151502179055505b8015620001025760008060016101000a81548160ff0219169083151502179055505b50620001f3565b600062000121306200012760201b62000ed51760201c565b15905090565b6000808273ffffffffffffffffffffffffffffffffffffffff163b119050919050565b600062000159602e8362000193565b91506200016682620001a4565b604082019050919050565b600060208201905081810360008301526200018c816200014a565b9050919050565b600082825260208201905092915050565b7f496e697469616c697a61626c653a20636f6e747261637420697320616c72656160008201527f647920696e697469616c697a6564000000000000000000000000000000000000602082015250565b61314e80620002036000396000f3fe608060405234801561001057600080fd5b506004361061012c5760003560e01c8063715018a6116100ad578063a22cb46511610071578063a22cb4651461030b578063b88d4fde14610327578063c87b56dd14610343578063e985e9c514610373578063f2fde38b146103a35761012c565b8063715018a61461029d5780638129fc1c146102a75780638da5cb5b146102b157806395d89b41146102cf5780639b106640146102ed5761012c565b806340d097c3116100f457806340d097c3146101e757806342842e0e146102035780636352211e1461021f57806370a082311461024f578063714c53981461027f5761012c565b806301ffc9a71461013157806306fdde0314610161578063081812fc1461017f578063095ea7b3146101af57806323b872dd146101cb575b600080fd5b61014b6004803603810190610146919061210c565b6103bf565b6040516101589190612558565b60405180910390f35b6101696104a1565b6040516101769190612573565b60405180910390f35b6101996004803603810190610194919061215e565b610533565b6040516101a691906124f1565b60405180910390f35b6101c960048036038101906101c491906120d0565b6105b8565b005b6101e560048036038101906101e09190611fca565b6106d0565b005b61020160048036038101906101fc9190611f65565b610730565b005b61021d60048036038101906102189190611fca565b6107d2565b005b6102396004803603810190610234919061215e565b6107f2565b60405161024691906124f1565b60405180910390f35b61026960048036038101906102649190611f65565b6108a4565b60405161027691906127d5565b60405180910390f35b61028761095c565b6040516102949190612573565b60405180910390f35b6102a561097c565b005b6102af610a04565b005b6102b9610b64565b6040516102c691906124f1565b60405180910390f35b6102d7610b8e565b6040516102e49190612573565b60405180910390f35b6102f5610c20565b60405161030291906127d5565b60405180910390f35b61032560048036038101906103209190612094565b610c2a565b005b610341600480360381019061033c9190612019565b610c40565b005b61035d6004803603810190610358919061215e565b610ca2565b60405161036a9190612573565b60405180910390f35b61038d60048036038101906103889190611f8e565b610d49565b60405161039a9190612558565b60405180910390f35b6103bd60048036038101906103b89190611f65565b610ddd565b005b60007f80ac58cd000000000000000000000000000000000000000000000000000000007bffffffffffffffffffffffffffffffffffffffffffffffffffffffff1916827bffffffffffffffffffffffffffffffffffffffffffffffffffffffff1916148061048a57507f5b5e139f000000000000000000000000000000000000000000000000000000007bffffffffffffffffffffffffffffffffffffffffffffffffffffffff1916827bffffffffffffffffffffffffffffffffffffffffffffffffffffffff1916145b8061049a575061049982610ef8565b5b9050919050565b6060606580546104b0906129fa565b80601f01602080910402602001604051908101604052809291908181526020018280546104dc906129fa565b80156105295780601f106104fe57610100808354040283529160200191610529565b820191906000526020600020905b81548152906001019060200180831161050c57829003601f168201915b5050505050905090565b600061053e82610f62565b61057d576040517f08c379a000000000000000000000000000000000000000000000000000000000815260040161057490612715565b60405180910390fd5b6069600083815260200190815260200160002060009054906101000a900473ffffffffffffffffffffffffffffffffffffffff169050919050565b60006105c3826107f2565b90508073ffffffffffffffffffffffffffffffffffffffff168373ffffffffffffffffffffffffffffffffffffffff161415610634576040517f08c379a000000000000000000000000000000000000000000000000000000000815260040161062b90612775565b60405180910390fd5b8073ffffffffffffffffffffffffffffffffffffffff16610653610fce565b73ffffffffffffffffffffffffffffffffffffffff16148061068257506106818161067c610fce565b610d49565b5b6106c1576040517f08c379a00000000000000000000000000000000000000000000000000000000081526004016106b890612675565b60405180910390fd5b6106cb8383610fd6565b505050565b6106e16106db610fce565b8261108f565b610720576040517f08c379a000000000000000000000000000000000000000000000000000000000815260040161071790612795565b60405180910390fd5b61072b83838361116d565b505050565b610738610fce565b73ffffffffffffffffffffffffffffffffffffffff16610756610b64565b73ffffffffffffffffffffffffffffffffffffffff16146107ac576040517f08c379a00000000000000000000000000000000000000000000000000000000081526004016107a390612735565b60405180910390fd5b60006107b860cc6113d4565b90506107c460cc6113e2565b6107ce82826113f8565b5050565b6107ed83838360405180602001604052806000815250610c40565b505050565b6000806067600084815260200190815260200160002060009054906101000a900473ffffffffffffffffffffffffffffffffffffffff169050600073ffffffffffffffffffffffffffffffffffffffff168173ffffffffffffffffffffffffffffffffffffffff16141561089b576040517f08c379a0000000000000000000000000000000000000000000000000000000008152600401610892906126b5565b60405180910390fd5b80915050919050565b60008073ffffffffffffffffffffffffffffffffffffffff168273ffffffffffffffffffffffffffffffffffffffff161415610915576040517f08c379a000000000000000000000000000000000000000000000000000000000815260040161090c90612695565b60405180910390fd5b606860008373ffffffffffffffffffffffffffffffffffffffff1673ffffffffffffffffffffffffffffffffffffffff168152602001908152602001600020549050919050565b60606040518060600160405280602281526020016130f760229139905090565b610984610fce565b73ffffffffffffffffffffffffffffffffffffffff166109a2610b64565b73ffffffffffffffffffffffffffffffffffffffff16146109f8576040517f08c379a00000000000000000000000000000000000000000000000000000000081526004016109ef90612735565b60405180910390fd5b610a026000611416565b565b600060019054906101000a900460ff16610a2c5760008054906101000a900460ff1615610a35565b610a346114dc565b5b610a74576040517f08c379a0000000000000000000000000000000000000000000000000000000008152600401610a6b906126d5565b60405180910390fd5b60008060019054906101000a900460ff161590508015610ac4576001600060016101000a81548160ff02191690831515021790555060016000806101000a81548160ff0219169083151502179055505b610b386040518060400160405280600c81526020017f4e4654205570677261626c6500000000000000000000000000000000000000008152506040518060400160405280600481526020017f4e465455000000000000000000000000000000000000000000000000000000008152506114ed565b610b4061154a565b8015610b615760008060016101000a81548160ff0219169083151502179055505b50565b6000609760009054906101000a900473ffffffffffffffffffffffffffffffffffffffff16905090565b606060668054610b9d906129fa565b80601f0160208091040260200160405190810160405280929190818152602001828054610bc9906129fa565b8015610c165780601f10610beb57610100808354040283529160200191610c16565b820191906000526020600020905b815481529060010190602001808311610bf957829003601f168201915b5050505050905090565b600060cb54905090565b610c3c610c35610fce565b83836115a3565b5050565b610c51610c4b610fce565b8361108f565b610c90576040517f08c379a0000000000000000000000000000000000000000000000000000000008152600401610c8790612795565b60405180910390fd5b610c9c84848484611710565b50505050565b6060610cad82610f62565b610cec576040517f08c379a0000000000000000000000000000000000000000000000000000000008152600401610ce390612755565b60405180910390fd5b6000610cf661176c565b90506000815111610d165760405180602001604052806000815250610d41565b80610d208461178c565b604051602001610d319291906124cd565b6040516020818303038152906040525b915050919050565b6000606a60008473ffffffffffffffffffffffffffffffffffffffff1673ffffffffffffffffffffffffffffffffffffffff16815260200190815260200160002060008373ffffffffffffffffffffffffffffffffffffffff1673ffffffffffffffffffffffffffffffffffffffff16815260200190815260200160002060009054906101000a900460ff16905092915050565b610de5610fce565b73ffffffffffffffffffffffffffffffffffffffff16610e03610b64565b73ffffffffffffffffffffffffffffffffffffffff1614610e59576040517f08c379a0000000000000000000000000000000000000000000000000000000008152600401610e5090612735565b60405180910390fd5b600073ffffffffffffffffffffffffffffffffffffffff168173ffffffffffffffffffffffffffffffffffffffff161415610ec9576040517f08c379a0000000000000000000000000000000000000000000000000000000008152600401610ec0906125b5565b60405180910390fd5b610ed281611416565b50565b6000808273ffffffffffffffffffffffffffffffffffffffff163b119050919050565b60007f01ffc9a7000000000000000000000000000000000000000000000000000000007bffffffffffffffffffffffffffffffffffffffffffffffffffffffff1916827bffffffffffffffffffffffffffffffffffffffffffffffffffffffff1916149050919050565b60008073ffffffffffffffffffffffffffffffffffffffff166067600084815260200190815260200160002060009054906101000a900473ffffffffffffffffffffffffffffffffffffffff1673ffffffffffffffffffffffffffffffffffffffff1614159050919050565b600033905090565b816069600083815260200190815260200160002060006101000a81548173ffffffffffffffffffffffffffffffffffffffff021916908373ffffffffffffffffffffffffffffffffffffffff160217905550808273ffffffffffffffffffffffffffffffffffffffff16611049836107f2565b73ffffffffffffffffffffffffffffffffffffffff167f8c5be1e5ebec7d5bd14f71427d1e84f3dd0314c0f7b2291e5b200ac8c7c3b92560405160405180910390a45050565b600061109a82610f62565b6110d9576040517f08c379a00000000000000000000000000000000000000000000000000000000081526004016110d090612655565b60405180910390fd5b60006110e4836107f2565b90508073ffffffffffffffffffffffffffffffffffffffff168473ffffffffffffffffffffffffffffffffffffffff16148061115357508373ffffffffffffffffffffffffffffffffffffffff1661113b84610533565b73ffffffffffffffffffffffffffffffffffffffff16145b8061116457506111638185610d49565b5b91505092915050565b8273ffffffffffffffffffffffffffffffffffffffff1661118d826107f2565b73ffffffffffffffffffffffffffffffffffffffff16146111e3576040517f08c379a00000000000000000000000000000000000000000000000000000000081526004016111da906125d5565b60405180910390fd5b600073ffffffffffffffffffffffffffffffffffffffff168273ffffffffffffffffffffffffffffffffffffffff161415611253576040517f08c379a000000000000000000000000000000000000000000000000000000000815260040161124a90612615565b60405180910390fd5b61125e838383611939565b611269600082610fd6565b6001606860008573ffffffffffffffffffffffffffffffffffffffff1673ffffffffffffffffffffffffffffffffffffffff16815260200190815260200160002060008282546112b99190612910565b925050819055506001606860008473ffffffffffffffffffffffffffffffffffffffff1673ffffffffffffffffffffffffffffffffffffffff16815260200190815260200160002060008282546113109190612889565b92505081905550816067600083815260200190815260200160002060006101000a81548173ffffffffffffffffffffffffffffffffffffffff021916908373ffffffffffffffffffffffffffffffffffffffff160217905550808273ffffffffffffffffffffffffffffffffffffffff168473ffffffffffffffffffffffffffffffffffffffff167fddf252ad1be2c89b69c2b068fc378daa952ba7f163c4a11628f55a4df523b3ef60405160405180910390a46113cf83838361193e565b505050565b600081600001549050919050565b6001816000016000828254019250508190555050565b611412828260405180602001604052806000815250611943565b5050565b6000609760009054906101000a900473ffffffffffffffffffffffffffffffffffffffff16905081609760006101000a81548173ffffffffffffffffffffffffffffffffffffffff021916908373ffffffffffffffffffffffffffffffffffffffff1602179055508173ffffffffffffffffffffffffffffffffffffffff168173ffffffffffffffffffffffffffffffffffffffff167f8be0079c531659141344cd1fd0a4f28419497f9722a3daafe3b4186f6b6457e060405160405180910390a35050565b60006114e730610ed5565b15905090565b600060019054906101000a900460ff1661153c576040517f08c379a0000000000000000000000000000000000000000000000000000000008152600401611533906127b5565b60405180910390fd5b611546828261199e565b5050565b600060019054906101000a900460ff16611599576040517f08c379a0000000000000000000000000000000000000000000000000000000008152600401611590906127b5565b60405180910390fd5b6115a1611a1f565b565b8173ffffffffffffffffffffffffffffffffffffffff168373ffffffffffffffffffffffffffffffffffffffff161415611612576040517f08c379a000000000000000000000000000000000000000000000000000000000815260040161160990612635565b60405180910390fd5b80606a60008573ffffffffffffffffffffffffffffffffffffffff1673ffffffffffffffffffffffffffffffffffffffff16815260200190815260200160002060008473ffffffffffffffffffffffffffffffffffffffff1673ffffffffffffffffffffffffffffffffffffffff16815260200190815260200160002060006101000a81548160ff0219169083151502179055508173ffffffffffffffffffffffffffffffffffffffff168373ffffffffffffffffffffffffffffffffffffffff167f17307eab39ab6107e8899845ad3d59bd9653f200f220920489ca2b5937696c31836040516117039190612558565b60405180910390a3505050565b61171b84848461116d565b61172784848484611a80565b611766576040517f08c379a000000000000000000000000000000000000000000000000000000000815260040161175d90612595565b60405180910390fd5b50505050565b60606040518060600160405280602281526020016130f760229139905090565b606060008214156117d4576040518060400160405280600181526020017f30000000000000000000000000000000000000000000000000000000000000008152509050611934565b600082905060005b600082146118065780806117ef90612a5d565b915050600a826117ff91906128df565b91506117dc565b60008167ffffffffffffffff811115611848577f4e487b7100000000000000000000000000000000000000000000000000000000600052604160045260246000fd5b6040519080825280601f01601f19166020018201604052801561187a5781602001600182028036833780820191505090505b5090505b6000851461192d576001826118939190612910565b9150600a856118a29190612aa6565b60306118ae9190612889565b60f81b8183815181106118ea577f4e487b7100000000000000000000000000000000000000000000000000000000600052603260045260246000fd5b60200101907effffffffffffffffffffffffffffffffffffffffffffffffffffffffffffff1916908160001a905350600a8561192691906128df565b945061187e565b8093505050505b919050565b505050565b505050565b61194d8383611c17565b61195a6000848484611a80565b611999576040517f08c379a000000000000000000000000000000000000000000000000000000000815260040161199090612595565b60405180910390fd5b505050565b600060019054906101000a900460ff166119ed576040517f08c379a00000000000000000000000000000000000000000000000000000000081526004016119e4906127b5565b60405180910390fd5b8160659080519060200190611a03929190611df1565b508060669080519060200190611a1a929190611df1565b505050565b600060019054906101000a900460ff16611a6e576040517f08c379a0000000000000000000000000000000000000000000000000000000008152600401611a65906127b5565b60405180910390fd5b611a7e611a79610fce565b611416565b565b6000611aa18473ffffffffffffffffffffffffffffffffffffffff16610ed5565b15611c0a578373ffffffffffffffffffffffffffffffffffffffff1663150b7a02611aca610fce565b8786866040518563ffffffff1660e01b8152600401611aec949392919061250c565b602060405180830381600087803b158015611b0657600080fd5b505af1925050508015611b3757506040513d601f19601f82011682018060405250810190611b349190612135565b60015b611bba573d8060008114611b67576040519150601f19603f3d011682016040523d82523d6000602084013e611b6c565b606091505b50600081511415611bb2576040517f08c379a0000000000000000000000000000000000000000000000000000000008152600401611ba990612595565b60405180910390fd5b805181602001fd5b63150b7a0260e01b7bffffffffffffffffffffffffffffffffffffffffffffffffffffffff1916817bffffffffffffffffffffffffffffffffffffffffffffffffffffffff191614915050611c0f565b600190505b949350505050565b600073ffffffffffffffffffffffffffffffffffffffff168273ffffffffffffffffffffffffffffffffffffffff161415611c87576040517f08c379a0000000000000000000000000000000000000000000000000000000008152600401611c7e906126f5565b60405180910390fd5b611c9081610f62565b15611cd0576040517f08c379a0000000000000000000000000000000000000000000000000000000008152600401611cc7906125f5565b60405180910390fd5b611cdc60008383611939565b6001606860008473ffffffffffffffffffffffffffffffffffffffff1673ffffffffffffffffffffffffffffffffffffffff1681526020019081526020016000206000828254611d2c9190612889565b92505081905550816067600083815260200190815260200160002060006101000a81548173ffffffffffffffffffffffffffffffffffffffff021916908373ffffffffffffffffffffffffffffffffffffffff160217905550808273ffffffffffffffffffffffffffffffffffffffff16600073ffffffffffffffffffffffffffffffffffffffff167fddf252ad1be2c89b69c2b068fc378daa952ba7f163c4a11628f55a4df523b3ef60405160405180910390a4611ded6000838361193e565b5050565b828054611dfd906129fa565b90600052602060002090601f016020900481019282611e1f5760008555611e66565b82601f10611e3857805160ff1916838001178555611e66565b82800160010185558215611e66579182015b82811115611e65578251825591602001919060010190611e4a565b5b509050611e739190611e77565b5090565b5b80821115611e90576000816000905550600101611e78565b5090565b6000611ea7611ea284612815565b6127f0565b905082815260208101848484011115611ebf57600080fd5b611eca8482856129b8565b509392505050565b600081359050611ee18161309a565b92915050565b600081359050611ef6816130b1565b92915050565b600081359050611f0b816130c8565b92915050565b600081519050611f20816130c8565b92915050565b600082601f830112611f3757600080fd5b8135611f47848260208601611e94565b91505092915050565b600081359050611f5f816130df565b92915050565b600060208284031215611f7757600080fd5b6000611f8584828501611ed2565b91505092915050565b60008060408385031215611fa157600080fd5b6000611faf85828601611ed2565b9250506020611fc085828601611ed2565b9150509250929050565b600080600060608486031215611fdf57600080fd5b6000611fed86828701611ed2565b9350506020611ffe86828701611ed2565b925050604061200f86828701611f50565b9150509250925092565b6000806000806080858703121561202f57600080fd5b600061203d87828801611ed2565b945050602061204e87828801611ed2565b935050604061205f87828801611f50565b925050606085013567ffffffffffffffff81111561207c57600080fd5b61208887828801611f26565b91505092959194509250565b600080604083850312156120a757600080fd5b60006120b585828601611ed2565b92505060206120c685828601611ee7565b9150509250929050565b600080604083850312156120e357600080fd5b60006120f185828601611ed2565b925050602061210285828601611f50565b9150509250929050565b60006020828403121561211e57600080fd5b600061212c84828501611efc565b91505092915050565b60006020828403121561214757600080fd5b600061215584828501611f11565b91505092915050565b60006020828403121561217057600080fd5b600061217e84828501611f50565b91505092915050565b61219081612944565b82525050565b61219f81612956565b82525050565b60006121b082612846565b6121ba818561285c565b93506121ca8185602086016129c7565b6121d381612b93565b840191505092915050565b60006121e982612851565b6121f3818561286d565b93506122038185602086016129c7565b61220c81612b93565b840191505092915050565b600061222282612851565b61222c818561287e565b935061223c8185602086016129c7565b80840191505092915050565b600061225560328361286d565b915061226082612ba4565b604082019050919050565b600061227860268361286d565b915061228382612bf3565b604082019050919050565b600061229b60258361286d565b91506122a682612c42565b604082019050919050565b60006122be601c8361286d565b91506122c982612c91565b602082019050919050565b60006122e160248361286d565b91506122ec82612cba565b604082019050919050565b600061230460198361286d565b915061230f82612d09565b602082019050919050565b6000612327602c8361286d565b915061233282612d32565b604082019050919050565b600061234a60388361286d565b915061235582612d81565b604082019050919050565b600061236d602a8361286d565b915061237882612dd0565b604082019050919050565b600061239060298361286d565b915061239b82612e1f565b604082019050919050565b60006123b3602e8361286d565b91506123be82612e6e565b604082019050919050565b60006123d660208361286d565b91506123e182612ebd565b602082019050919050565b60006123f9602c8361286d565b915061240482612ee6565b604082019050919050565b600061241c60208361286d565b915061242782612f35565b602082019050919050565b600061243f602f8361286d565b915061244a82612f5e565b604082019050919050565b600061246260218361286d565b915061246d82612fad565b604082019050919050565b600061248560318361286d565b915061249082612ffc565b604082019050919050565b60006124a8602b8361286d565b91506124b38261304b565b604082019050919050565b6124c7816129ae565b82525050565b60006124d98285612217565b91506124e58284612217565b91508190509392505050565b60006020820190506125066000830184612187565b92915050565b60006080820190506125216000830187612187565b61252e6020830186612187565b61253b60408301856124be565b818103606083015261254d81846121a5565b905095945050505050565b600060208201905061256d6000830184612196565b92915050565b6000602082019050818103600083015261258d81846121de565b905092915050565b600060208201905081810360008301526125ae81612248565b9050919050565b600060208201905081810360008301526125ce8161226b565b9050919050565b600060208201905081810360008301526125ee8161228e565b9050919050565b6000602082019050818103600083015261260e816122b1565b9050919050565b6000602082019050818103600083015261262e816122d4565b9050919050565b6000602082019050818103600083015261264e816122f7565b9050919050565b6000602082019050818103600083015261266e8161231a565b9050919050565b6000602082019050818103600083015261268e8161233d565b9050919050565b600060208201905081810360008301526126ae81612360565b9050919050565b600060208201905081810360008301526126ce81612383565b9050919050565b600060208201905081810360008301526126ee816123a6565b9050919050565b6000602082019050818103600083015261270e816123c9565b9050919050565b6000602082019050818103600083015261272e816123ec565b9050919050565b6000602082019050818103600083015261274e8161240f565b9050919050565b6000602082019050818103600083015261276e81612432565b9050919050565b6000602082019050818103600083015261278e81612455565b9050919050565b600060208201905081810360008301526127ae81612478565b9050919050565b600060208201905081810360008301526127ce8161249b565b9050919050565b60006020820190506127ea60008301846124be565b92915050565b60006127fa61280b565b90506128068282612a2c565b919050565b6000604051905090565b600067ffffffffffffffff8211156128305761282f612b64565b5b61283982612b93565b9050602081019050919050565b600081519050919050565b600081519050919050565b600082825260208201905092915050565b600082825260208201905092915050565b600081905092915050565b6000612894826129ae565b915061289f836129ae565b9250827fffffffffffffffffffffffffffffffffffffffffffffffffffffffffffffffff038211156128d4576128d3612ad7565b5b828201905092915050565b60006128ea826129ae565b91506128f5836129ae565b92508261290557612904612b06565b5b828204905092915050565b600061291b826129ae565b9150612926836129ae565b92508282101561293957612938612ad7565b5b828203905092915050565b600061294f8261298e565b9050919050565b60008115159050919050565b60007fffffffff0000000000000000000000000000000000000000000000000000000082169050919050565b600073ffffffffffffffffffffffffffffffffffffffff82169050919050565b6000819050919050565b82818337600083830152505050565b60005b838110156129e55780820151818401526020810190506129ca565b838111156129f4576000848401525b50505050565b60006002820490506001821680612a1257607f821691505b60208210811415612a2657612a25612b35565b5b50919050565b612a3582612b93565b810181811067ffffffffffffffff82111715612a5457612a53612b64565b5b80604052505050565b6000612a68826129ae565b91507fffffffffffffffffffffffffffffffffffffffffffffffffffffffffffffffff821415612a9b57612a9a612ad7565b5b600182019050919050565b6000612ab1826129ae565b9150612abc836129ae565b925082612acc57612acb612b06565b5b828206905092915050565b7f4e487b7100000000000000000000000000000000000000000000000000000000600052601160045260246000fd5b7f4e487b7100000000000000000000000000000000000000000000000000000000600052601260045260246000fd5b7f4e487b7100000000000000000000000000000000000000000000000000000000600052602260045260246000fd5b7f4e487b7100000000000000000000000000000000000000000000000000000000600052604160045260246000fd5b6000601f19601f8301169050919050565b7f4552433732313a207472616e7366657220746f206e6f6e20455243373231526560008201527f63656976657220696d706c656d656e7465720000000000000000000000000000602082015250565b7f4f776e61626c653a206e6577206f776e657220697320746865207a65726f206160008201527f6464726573730000000000000000000000000000000000000000000000000000602082015250565b7f4552433732313a207472616e736665722066726f6d20696e636f72726563742060008201527f6f776e6572000000000000000000000000000000000000000000000000000000602082015250565b7f4552433732313a20746f6b656e20616c7265616479206d696e74656400000000600082015250565b7f4552433732313a207472616e7366657220746f20746865207a65726f2061646460008201527f7265737300000000000000000000000000000000000000000000000000000000602082015250565b7f4552433732313a20617070726f766520746f2063616c6c657200000000000000600082015250565b7f4552433732313a206f70657261746f7220717565727920666f72206e6f6e657860008201527f697374656e7420746f6b656e0000000000000000000000000000000000000000602082015250565b7f4552433732313a20617070726f76652063616c6c6572206973206e6f74206f7760008201527f6e6572206e6f7220617070726f76656420666f7220616c6c0000000000000000602082015250565b7f4552433732313a2062616c616e636520717565727920666f7220746865207a6560008201527f726f206164647265737300000000000000000000000000000000000000000000602082015250565b7f4552433732313a206f776e657220717565727920666f72206e6f6e657869737460008201527f656e7420746f6b656e0000000000000000000000000000000000000000000000602082015250565b7f496e697469616c697a61626c653a20636f6e747261637420697320616c72656160008201527f647920696e697469616c697a6564000000000000000000000000000000000000602082015250565b7f4552433732313a206d696e7420746f20746865207a65726f2061646472657373600082015250565b7f4552433732313a20617070726f76656420717565727920666f72206e6f6e657860008201527f697374656e7420746f6b656e0000000000000000000000000000000000000000602082015250565b7f4f776e61626c653a2063616c6c6572206973206e6f7420746865206f776e6572600082015250565b7f4552433732314d657461646174613a2055524920717565727920666f72206e6f60008201527f6e6578697374656e7420746f6b656e0000000000000000000000000000000000602082015250565b7f4552433732313a20617070726f76616c20746f2063757272656e74206f776e6560008201527f7200000000000000000000000000000000000000000000000000000000000000602082015250565b7f4552433732313a207472616e736665722063616c6c6572206973206e6f74206f60008201527f776e6572206e6f7220617070726f766564000000000000000000000000000000602082015250565b7f496e697469616c697a61626c653a20636f6e7472616374206973206e6f74206960008201527f6e697469616c697a696e67000000000000000000000000000000000000000000602082015250565b6130a381612944565b81146130ae57600080fd5b50565b6130ba81612956565b81146130c557600080fd5b50565b6130d181612962565b81146130dc57600080fd5b50565b6130e8816129ae565b81146130f357600080fd5b5056fe68747470733a2f2f6d657461646174612e6f7665726c656167756576322e636f6d2fa2646970667358221220b12d03435ea223c47287eba0e4b5357fa5669e26af900ead889624986fa627f964736f6c63430008020033",
  "linkReferences": {},
  "deployedLinkReferences": {}
}