{
  "_format": "hh-sol-artifact-1",
  "contractName": "NFTUpgrableV1",
  "sourceName": "contracts/NFTUpgrableV1.sol",
  "abi": [
    {
      "inputs": [],
      "stateMutability": "nonpayable",
      "type": "constructor"
    },
    {
      "anonymous": false,
      "inputs": [
        {
          "indexed": true,
          "internalType": "address",
          "name": "owner",
          "type": "address"
        },
        {
          "indexed": true,
          "internalType": "address",
          "name": "approved",
          "type": "address"
        },
        {
          "indexed": true,
          "internalType": "uint256",
          "name": "tokenId",
          "type": "uint256"
        }
      ],
      "name": "Approval",
      "type": "event"
    },
    {
      "anonymous": false,
      "inputs": [
        {
          "indexed": true,
          "internalType": "address",
          "name": "owner",
          "type": "address"
        },
        {
          "indexed": true,
          "internalType": "address",
          "name": "operator",
          "type": "address"
        },
        {
          "indexed": false,
          "internalType": "bool",
          "name": "approved",
          "type": "bool"
        }
      ],
      "name": "ApprovalForAll",
      "type": "event"
    },
    {
      "anonymous": false,
      "inputs": [
        {
          "indexed": true,
          "internalType": "address",
          "name": "previousOwner",
          "type": "address"
        },
        {
          "indexed": true,
          "internalType": "address",
          "name": "newOwner",
          "type": "address"
        }
      ],
      "name": "OwnershipTransferred",
      "type": "event"
    },
    {
      "anonymous": false,
      "inputs": [
        {
          "indexed": true,
          "internalType": "address",
          "name": "from",
          "type": "address"
        },
        {
          "indexed": true,
          "internalType": "address",
          "name": "to",
          "type": "address"
        },
        {
          "indexed": true,
          "internalType": "uint256",
          "name": "tokenId",
          "type": "uint256"
        }
      ],
      "name": "Transfer",
      "type": "event"
    },
    {
      "inputs": [
        {
          "internalType": "address",
          "name": "to",
          "type": "address"
        },
        {
          "internalType": "uint256",
          "name": "tokenId",
          "type": "uint256"
        }
      ],
      "name": "approve",
      "outputs": [],
      "stateMutability": "nonpayable",
      "type": "function"
    },
    {
      "inputs": [
        {
          "internalType": "address",
          "name": "owner",
          "type": "address"
        }
      ],
      "name": "balanceOf",
      "outputs": [
        {
          "internalType": "uint256",
          "name": "",
          "type": "uint256"
        }
      ],
      "stateMutability": "view",
      "type": "function"
    },
    {
      "inputs": [
        {
          "internalType": "uint256",
          "name": "tokenId",
          "type": "uint256"
        }
      ],
      "name": "getApproved",
      "outputs": [
        {
          "internalType": "address",
          "name": "",
          "type": "address"
        }
      ],
      "stateMutability": "view",
      "type": "function"
    },
    {
      "inputs": [],
      "name": "gettestID",
      "outputs": [
        {
          "internalType": "uint256",
          "name": "",
          "type": "uint256"
        }
      ],
      "stateMutability": "view",
      "type": "function"
    },
    {
      "inputs": [
        {
          "internalType": "string",
          "name": "name",
          "type": "string"
        },
        {
          "internalType": "string",
          "name": "symbol",
          "type": "string"
        }
      ],
      "name": "initialize",
      "outputs": [],
      "stateMutability": "nonpayable",
      "type": "function"
    },
    {
      "inputs": [
        {
          "internalType": "address",
          "name": "owner",
          "type": "address"
        },
        {
          "internalType": "address",
          "name": "operator",
          "type": "address"
        }
      ],
      "name": "isApprovedForAll",
      "outputs": [
        {
          "internalType": "bool",
          "name": "",
          "type": "bool"
        }
      ],
      "stateMutability": "view",
      "type": "function"
    },
    {
      "inputs": [],
      "name": "name",
      "outputs": [
        {
          "internalType": "string",
          "name": "",
          "type": "string"
        }
      ],
      "stateMutability": "view",
      "type": "function"
    },
    {
      "inputs": [],
      "name": "owner",
      "outputs": [
        {
          "internalType": "address",
          "name": "",
          "type": "address"
        }
      ],
      "stateMutability": "view",
      "type": "function"
    },
    {
      "inputs": [
        {
          "internalType": "uint256",
          "name": "tokenId",
          "type": "uint256"
        }
      ],
      "name": "ownerOf",
      "outputs": [
        {
          "internalType": "address",
          "name": "",
          "type": "address"
        }
      ],
      "stateMutability": "view",
      "type": "function"
    },
    {
      "inputs": [],
      "name": "renounceOwnership",
      "outputs": [],
      "stateMutability": "nonpayable",
      "type": "function"
    },
    {
      "inputs": [
        {
          "internalType": "address",
          "name": "to",
          "type": "address"
        },
        {
          "internalType": "uint256",
          "name": "tokenId",
          "type": "uint256"
        }
      ],
      "name": "safeMint",
      "outputs": [],
      "stateMutability": "nonpayable",
      "type": "function"
    },
    {
      "inputs": [
        {
          "internalType": "address",
          "name": "from",
          "type": "address"
        },
        {
          "internalType": "address",
          "name": "to",
          "type": "address"
        },
        {
          "internalType": "uint256",
          "name": "tokenId",
          "type": "uint256"
        }
      ],
      "name": "safeTransferFrom",
      "outputs": [],
      "stateMutability": "nonpayable",
      "type": "function"
    },
    {
      "inputs": [
        {
          "internalType": "address",
          "name": "from",
          "type": "address"
        },
        {
          "internalType": "address",
          "name": "to",
          "type": "address"
        },
        {
          "internalType": "uint256",
          "name": "tokenId",
          "type": "uint256"
        },
        {
          "internalType": "bytes",
          "name": "_data",
          "type": "bytes"
        }
      ],
      "name": "safeTransferFrom",
      "outputs": [],
      "stateMutability": "nonpayable",
      "type": "function"
    },
    {
      "inputs": [
        {
          "internalType": "address",
          "name": "operator",
          "type": "address"
        },
        {
          "internalType": "bool",
          "name": "approved",
          "type": "bool"
        }
      ],
      "name": "setApprovalForAll",
      "outputs": [],
      "stateMutability": "nonpayable",
      "type": "function"
    },
    {
      "inputs": [
        {
          "internalType": "bytes4",
          "name": "interfaceId",
          "type": "bytes4"
        }
      ],
      "name": "supportsInterface",
      "outputs": [
        {
          "internalType": "bool",
          "name": "",
          "type": "bool"
        }
      ],
      "stateMutability": "view",
      "type": "function"
    },
    {
      "inputs": [],
      "name": "symbol",
      "outputs": [
        {
          "internalType": "string",
          "name": "",
          "type": "string"
        }
      ],
      "stateMutability": "view",
      "type": "function"
    },
    {
      "inputs": [
        {
          "internalType": "uint256",
          "name": "tokenId",
          "type": "uint256"
        }
      ],
      "name": "tokenURI",
      "outputs": [
        {
          "internalType": "string",
          "name": "",
          "type": "string"
        }
      ],
      "stateMutability": "view",
      "type": "function"
    },
    {
      "inputs": [
        {
          "internalType": "address",
          "name": "from",
          "type": "address"
        },
        {
          "internalType": "address",
          "name": "to",
          "type": "address"
        },
        {
          "internalType": "uint256",
          "name": "tokenId",
          "type": "uint256"
        }
      ],
      "name": "transferFrom",
      "outputs": [],
      "stateMutability": "nonpayable",
      "type": "function"
    },
    {
      "inputs": [
        {
          "internalType": "address",
          "name": "newOwner",
          "type": "address"
        }
      ],
      "name": "transferOwnership",
      "outputs": [],
      "stateMutability": "nonpayable",
      "type": "function"
    }
  ],
  "bytecode": "0x60806040523480156200001157600080fd5b50600060019054906101000a900460ff166200003c5760008054906101000a900460ff16156200004d565b6200004c6200010960201b60201c565b5b6200008f576040517f08c379a0000000000000000000000000000000000000000000000000000000008152600401620000869062000171565b60405180910390fd5b60008060019054906101000a900460ff161590508015620000e0576001600060016101000a81548160ff02191690831515021790555060016000806101000a81548160ff0219169083151502179055505b8015620001025760008060016101000a81548160ff0219169083151502179055505b50620001f3565b600062000121306200012760201b62000e261760201c565b15905090565b6000808273ffffffffffffffffffffffffffffffffffffffff163b119050919050565b600062000159602e8362000193565b91506200016682620001a4565b604082019050919050565b600060208201905081810360008301526200018c816200014a565b9050919050565b600082825260208201905092915050565b7f496e697469616c697a61626c653a20636f6e747261637420697320616c72656160008201527f647920696e697469616c697a6564000000000000000000000000000000000000602082015250565b61318080620002036000396000f3fe608060405234801561001057600080fd5b50600436106101215760003560e01c8063715018a6116100ad578063a22cb46511610071578063a22cb465146102f4578063b88d4fde14610310578063c87b56dd1461032c578063e985e9c51461035c578063f2fde38b1461038c57610121565b8063715018a6146102745780638da5cb5b1461027e57806395d89b411461029c5780639b106640146102ba578063a1448194146102d857610121565b806323b872dd116100f457806323b872dd146101c057806342842e0e146101dc5780634cd88b76146101f85780636352211e1461021457806370a082311461024457610121565b806301ffc9a71461012657806306fdde0314610156578063081812fc14610174578063095ea7b3146101a4575b600080fd5b610140600480360381019061013b91906120a1565b6103a8565b60405161014d9190612559565b60405180910390f35b61015e61048a565b60405161016b9190612574565b60405180910390f35b61018e6004803603810190610189919061215f565b61051c565b60405161019b91906124f2565b60405180910390f35b6101be60048036038101906101b99190612065565b6105a1565b005b6101da60048036038101906101d59190611f5f565b6106b9565b005b6101f660048036038101906101f19190611f5f565b610719565b005b610212600480360381019061020d91906120f3565b610739565b005b61022e6004803603810190610229919061215f565b610839565b60405161023b91906124f2565b60405180910390f35b61025e60048036038101906102599190611efa565b6108eb565b60405161026b91906127d6565b60405180910390f35b61027c6109a3565b005b610286610a2b565b60405161029391906124f2565b60405180910390f35b6102a4610a55565b6040516102b19190612574565b60405180910390f35b6102c2610ae7565b6040516102cf91906127d6565b60405180910390f35b6102f260048036038101906102ed9190612065565b610af1565b005b61030e60048036038101906103099190612029565b610b7b565b005b61032a60048036038101906103259190611fae565b610b91565b005b6103466004803603810190610341919061215f565b610bf3565b6040516103539190612574565b60405180910390f35b61037660048036038101906103719190611f23565b610c9a565b6040516103839190612559565b60405180910390f35b6103a660048036038101906103a19190611efa565b610d2e565b005b60007f80ac58cd000000000000000000000000000000000000000000000000000000007bffffffffffffffffffffffffffffffffffffffffffffffffffffffff1916827bffffffffffffffffffffffffffffffffffffffffffffffffffffffff1916148061047357507f5b5e139f000000000000000000000000000000000000000000000000000000007bffffffffffffffffffffffffffffffffffffffffffffffffffffffff1916827bffffffffffffffffffffffffffffffffffffffffffffffffffffffff1916145b80610483575061048282610e49565b5b9050919050565b60606065805461049990612a2c565b80601f01602080910402602001604051908101604052809291908181526020018280546104c590612a2c565b80156105125780601f106104e757610100808354040283529160200191610512565b820191906000526020600020905b8154815290600101906020018083116104f557829003601f168201915b5050505050905090565b600061052782610eb3565b610566576040517f08c379a000000000000000000000000000000000000000000000000000000000815260040161055d90612716565b60405180910390fd5b6069600083815260200190815260200160002060009054906101000a900473ffffffffffffffffffffffffffffffffffffffff169050919050565b60006105ac82610839565b90508073ffffffffffffffffffffffffffffffffffffffff168373ffffffffffffffffffffffffffffffffffffffff16141561061d576040517f08c379a000000000000000000000000000000000000000000000000000000000815260040161061490612776565b60405180910390fd5b8073ffffffffffffffffffffffffffffffffffffffff1661063c610f1f565b73ffffffffffffffffffffffffffffffffffffffff16148061066b575061066a81610665610f1f565b610c9a565b5b6106aa576040517f08c379a00000000000000000000000000000000000000000000000000000000081526004016106a190612676565b60405180910390fd5b6106b48383610f27565b505050565b6106ca6106c4610f1f565b82610fe0565b610709576040517f08c379a000000000000000000000000000000000000000000000000000000000815260040161070090612796565b60405180910390fd5b6107148383836110be565b505050565b61073483838360405180602001604052806000815250610b91565b505050565b600060019054906101000a900460ff166107615760008054906101000a900460ff161561076a565b610769611325565b5b6107a9576040517f08c379a00000000000000000000000000000000000000000000000000000000081526004016107a0906126d6565b60405180910390fd5b60008060019054906101000a900460ff1615905080156107f9576001600060016101000a81548160ff02191690831515021790555060016000806101000a81548160ff0219169083151502179055505b6108038383611336565b61080b611393565b607b60cb8190555080156108345760008060016101000a81548160ff0219169083151502179055505b505050565b6000806067600084815260200190815260200160002060009054906101000a900473ffffffffffffffffffffffffffffffffffffffff169050600073ffffffffffffffffffffffffffffffffffffffff168173ffffffffffffffffffffffffffffffffffffffff1614156108e2576040517f08c379a00000000000000000000000000000000000000000000000000000000081526004016108d9906126b6565b60405180910390fd5b80915050919050565b60008073ffffffffffffffffffffffffffffffffffffffff168273ffffffffffffffffffffffffffffffffffffffff16141561095c576040517f08c379a000000000000000000000000000000000000000000000000000000000815260040161095390612696565b60405180910390fd5b606860008373ffffffffffffffffffffffffffffffffffffffff1673ffffffffffffffffffffffffffffffffffffffff168152602001908152602001600020549050919050565b6109ab610f1f565b73ffffffffffffffffffffffffffffffffffffffff166109c9610a2b565b73ffffffffffffffffffffffffffffffffffffffff1614610a1f576040517f08c379a0000000000000000000000000000000000000000000000000000000008152600401610a1690612736565b60405180910390fd5b610a2960006113ec565b565b6000609760009054906101000a900473ffffffffffffffffffffffffffffffffffffffff16905090565b606060668054610a6490612a2c565b80601f0160208091040260200160405190810160405280929190818152602001828054610a9090612a2c565b8015610add5780601f10610ab257610100808354040283529160200191610add565b820191906000526020600020905b815481529060010190602001808311610ac057829003601f168201915b5050505050905090565b600060cb54905090565b610af9610f1f565b73ffffffffffffffffffffffffffffffffffffffff16610b17610a2b565b73ffffffffffffffffffffffffffffffffffffffff1614610b6d576040517f08c379a0000000000000000000000000000000000000000000000000000000008152600401610b6490612736565b60405180910390fd5b610b7782826114b2565b5050565b610b8d610b86610f1f565b83836114d0565b5050565b610ba2610b9c610f1f565b83610fe0565b610be1576040517f08c379a0000000000000000000000000000000000000000000000000000000008152600401610bd890612796565b60405180910390fd5b610bed8484848461163d565b50505050565b6060610bfe82610eb3565b610c3d576040517f08c379a0000000000000000000000000000000000000000000000000000000008152600401610c3490612756565b60405180910390fd5b6000610c47611699565b90506000815111610c675760405180602001604052806000815250610c92565b80610c71846116b9565b604051602001610c829291906124ce565b6040516020818303038152906040525b915050919050565b6000606a60008473ffffffffffffffffffffffffffffffffffffffff1673ffffffffffffffffffffffffffffffffffffffff16815260200190815260200160002060008373ffffffffffffffffffffffffffffffffffffffff1673ffffffffffffffffffffffffffffffffffffffff16815260200190815260200160002060009054906101000a900460ff16905092915050565b610d36610f1f565b73ffffffffffffffffffffffffffffffffffffffff16610d54610a2b565b73ffffffffffffffffffffffffffffffffffffffff1614610daa576040517f08c379a0000000000000000000000000000000000000000000000000000000008152600401610da190612736565b60405180910390fd5b600073ffffffffffffffffffffffffffffffffffffffff168173ffffffffffffffffffffffffffffffffffffffff161415610e1a576040517f08c379a0000000000000000000000000000000000000000000000000000000008152600401610e11906125b6565b60405180910390fd5b610e23816113ec565b50565b6000808273ffffffffffffffffffffffffffffffffffffffff163b119050919050565b60007f01ffc9a7000000000000000000000000000000000000000000000000000000007bffffffffffffffffffffffffffffffffffffffffffffffffffffffff1916827bffffffffffffffffffffffffffffffffffffffffffffffffffffffff1916149050919050565b60008073ffffffffffffffffffffffffffffffffffffffff166067600084815260200190815260200160002060009054906101000a900473ffffffffffffffffffffffffffffffffffffffff1673ffffffffffffffffffffffffffffffffffffffff1614159050919050565b600033905090565b816069600083815260200190815260200160002060006101000a81548173ffffffffffffffffffffffffffffffffffffffff021916908373ffffffffffffffffffffffffffffffffffffffff160217905550808273ffffffffffffffffffffffffffffffffffffffff16610f9a83610839565b73ffffffffffffffffffffffffffffffffffffffff167f8c5be1e5ebec7d5bd14f71427d1e84f3dd0314c0f7b2291e5b200ac8c7c3b92560405160405180910390a45050565b6000610feb82610eb3565b61102a576040517f08c379a000000000000000000000000000000000000000000000000000000000815260040161102190612656565b60405180910390fd5b600061103583610839565b90508073ffffffffffffffffffffffffffffffffffffffff168473ffffffffffffffffffffffffffffffffffffffff1614806110a457508373ffffffffffffffffffffffffffffffffffffffff1661108c8461051c565b73ffffffffffffffffffffffffffffffffffffffff16145b806110b557506110b48185610c9a565b5b91505092915050565b8273ffffffffffffffffffffffffffffffffffffffff166110de82610839565b73ffffffffffffffffffffffffffffffffffffffff1614611134576040517f08c379a000000000000000000000000000000000000000000000000000000000815260040161112b906125d6565b60405180910390fd5b600073ffffffffffffffffffffffffffffffffffffffff168273ffffffffffffffffffffffffffffffffffffffff1614156111a4576040517f08c379a000000000000000000000000000000000000000000000000000000000815260040161119b90612616565b60405180910390fd5b6111af838383611866565b6111ba600082610f27565b6001606860008573ffffffffffffffffffffffffffffffffffffffff1673ffffffffffffffffffffffffffffffffffffffff168152602001908152602001600020600082825461120a9190612942565b925050819055506001606860008473ffffffffffffffffffffffffffffffffffffffff1673ffffffffffffffffffffffffffffffffffffffff168152602001908152602001600020600082825461126191906128bb565b92505081905550816067600083815260200190815260200160002060006101000a81548173ffffffffffffffffffffffffffffffffffffffff021916908373ffffffffffffffffffffffffffffffffffffffff160217905550808273ffffffffffffffffffffffffffffffffffffffff168473ffffffffffffffffffffffffffffffffffffffff167fddf252ad1be2c89b69c2b068fc378daa952ba7f163c4a11628f55a4df523b3ef60405160405180910390a461132083838361186b565b505050565b600061133030610e26565b15905090565b600060019054906101000a900460ff16611385576040517f08c379a000000000000000000000000000000000000000000000000000000000815260040161137c906127b6565b60405180910390fd5b61138f8282611870565b5050565b600060019054906101000a900460ff166113e2576040517f08c379a00000000000000000000000000000000000000000000000000000000081526004016113d9906127b6565b60405180910390fd5b6113ea6118f1565b565b6000609760009054906101000a900473ffffffffffffffffffffffffffffffffffffffff16905081609760006101000a81548173ffffffffffffffffffffffffffffffffffffffff021916908373ffffffffffffffffffffffffffffffffffffffff1602179055508173ffffffffffffffffffffffffffffffffffffffff168173ffffffffffffffffffffffffffffffffffffffff167f8be0079c531659141344cd1fd0a4f28419497f9722a3daafe3b4186f6b6457e060405160405180910390a35050565b6114cc828260405180602001604052806000815250611952565b5050565b8173ffffffffffffffffffffffffffffffffffffffff168373ffffffffffffffffffffffffffffffffffffffff16141561153f576040517f08c379a000000000000000000000000000000000000000000000000000000000815260040161153690612636565b60405180910390fd5b80606a60008573ffffffffffffffffffffffffffffffffffffffff1673ffffffffffffffffffffffffffffffffffffffff16815260200190815260200160002060008473ffffffffffffffffffffffffffffffffffffffff1673ffffffffffffffffffffffffffffffffffffffff16815260200190815260200160002060006101000a81548160ff0219169083151502179055508173ffffffffffffffffffffffffffffffffffffffff168373ffffffffffffffffffffffffffffffffffffffff167f17307eab39ab6107e8899845ad3d59bd9653f200f220920489ca2b5937696c31836040516116309190612559565b60405180910390a3505050565b6116488484846110be565b611654848484846119ad565b611693576040517f08c379a000000000000000000000000000000000000000000000000000000000815260040161168a90612596565b60405180910390fd5b50505050565b606060405180606001604052806022815260200161312960229139905090565b60606000821415611701576040518060400160405280600181526020017f30000000000000000000000000000000000000000000000000000000000000008152509050611861565b600082905060005b6000821461173357808061171c90612a8f565b915050600a8261172c9190612911565b9150611709565b60008167ffffffffffffffff811115611775577f4e487b7100000000000000000000000000000000000000000000000000000000600052604160045260246000fd5b6040519080825280601f01601f1916602001820160405280156117a75781602001600182028036833780820191505090505b5090505b6000851461185a576001826117c09190612942565b9150600a856117cf9190612ad8565b60306117db91906128bb565b60f81b818381518110611817577f4e487b7100000000000000000000000000000000000000000000000000000000600052603260045260246000fd5b60200101907effffffffffffffffffffffffffffffffffffffffffffffffffffffffffffff1916908160001a905350600a856118539190612911565b94506117ab565b8093505050505b919050565b505050565b505050565b600060019054906101000a900460ff166118bf576040517f08c379a00000000000000000000000000000000000000000000000000000000081526004016118b6906127b6565b60405180910390fd5b81606590805190602001906118d5929190611d1e565b5080606690805190602001906118ec929190611d1e565b505050565b600060019054906101000a900460ff16611940576040517f08c379a0000000000000000000000000000000000000000000000000000000008152600401611937906127b6565b60405180910390fd5b61195061194b610f1f565b6113ec565b565b61195c8383611b44565b61196960008484846119ad565b6119a8576040517f08c379a000000000000000000000000000000000000000000000000000000000815260040161199f90612596565b60405180910390fd5b505050565b60006119ce8473ffffffffffffffffffffffffffffffffffffffff16610e26565b15611b37578373ffffffffffffffffffffffffffffffffffffffff1663150b7a026119f7610f1f565b8786866040518563ffffffff1660e01b8152600401611a19949392919061250d565b602060405180830381600087803b158015611a3357600080fd5b505af1925050508015611a6457506040513d601f19601f82011682018060405250810190611a6191906120ca565b60015b611ae7573d8060008114611a94576040519150601f19603f3d011682016040523d82523d6000602084013e611a99565b606091505b50600081511415611adf576040517f08c379a0000000000000000000000000000000000000000000000000000000008152600401611ad690612596565b60405180910390fd5b805181602001fd5b63150b7a0260e01b7bffffffffffffffffffffffffffffffffffffffffffffffffffffffff1916817bffffffffffffffffffffffffffffffffffffffffffffffffffffffff191614915050611b3c565b600190505b949350505050565b600073ffffffffffffffffffffffffffffffffffffffff168273ffffffffffffffffffffffffffffffffffffffff161415611bb4576040517f08c379a0000000000000000000000000000000000000000000000000000000008152600401611bab906126f6565b60405180910390fd5b611bbd81610eb3565b15611bfd576040517f08c379a0000000000000000000000000000000000000000000000000000000008152600401611bf4906125f6565b60405180910390fd5b611c0960008383611866565b6001606860008473ffffffffffffffffffffffffffffffffffffffff1673ffffffffffffffffffffffffffffffffffffffff1681526020019081526020016000206000828254611c5991906128bb565b92505081905550816067600083815260200190815260200160002060006101000a81548173ffffffffffffffffffffffffffffffffffffffff021916908373ffffffffffffffffffffffffffffffffffffffff160217905550808273ffffffffffffffffffffffffffffffffffffffff16600073ffffffffffffffffffffffffffffffffffffffff167fddf252ad1be2c89b69c2b068fc378daa952ba7f163c4a11628f55a4df523b3ef60405160405180910390a4611d1a6000838361186b565b5050565b828054611d2a90612a2c565b90600052602060002090601f016020900481019282611d4c5760008555611d93565b82601f10611d6557805160ff1916838001178555611d93565b82800160010185558215611d93579182015b82811115611d92578251825591602001919060010190611d77565b5b509050611da09190611da4565b5090565b5b80821115611dbd576000816000905550600101611da5565b5090565b6000611dd4611dcf84612816565b6127f1565b905082815260208101848484011115611dec57600080fd5b611df78482856129ea565b509392505050565b6000611e12611e0d84612847565b6127f1565b905082815260208101848484011115611e2a57600080fd5b611e358482856129ea565b509392505050565b600081359050611e4c816130cc565b92915050565b600081359050611e61816130e3565b92915050565b600081359050611e76816130fa565b92915050565b600081519050611e8b816130fa565b92915050565b600082601f830112611ea257600080fd5b8135611eb2848260208601611dc1565b91505092915050565b600082601f830112611ecc57600080fd5b8135611edc848260208601611dff565b91505092915050565b600081359050611ef481613111565b92915050565b600060208284031215611f0c57600080fd5b6000611f1a84828501611e3d565b91505092915050565b60008060408385031215611f3657600080fd5b6000611f4485828601611e3d565b9250506020611f5585828601611e3d565b9150509250929050565b600080600060608486031215611f7457600080fd5b6000611f8286828701611e3d565b9350506020611f9386828701611e3d565b9250506040611fa486828701611ee5565b9150509250925092565b60008060008060808587031215611fc457600080fd5b6000611fd287828801611e3d565b9450506020611fe387828801611e3d565b9350506040611ff487828801611ee5565b925050606085013567ffffffffffffffff81111561201157600080fd5b61201d87828801611e91565b91505092959194509250565b6000806040838503121561203c57600080fd5b600061204a85828601611e3d565b925050602061205b85828601611e52565b9150509250929050565b6000806040838503121561207857600080fd5b600061208685828601611e3d565b925050602061209785828601611ee5565b9150509250929050565b6000602082840312156120b357600080fd5b60006120c184828501611e67565b91505092915050565b6000602082840312156120dc57600080fd5b60006120ea84828501611e7c565b91505092915050565b6000806040838503121561210657600080fd5b600083013567ffffffffffffffff81111561212057600080fd5b61212c85828601611ebb565b925050602083013567ffffffffffffffff81111561214957600080fd5b61215585828601611ebb565b9150509250929050565b60006020828403121561217157600080fd5b600061217f84828501611ee5565b91505092915050565b61219181612976565b82525050565b6121a081612988565b82525050565b60006121b182612878565b6121bb818561288e565b93506121cb8185602086016129f9565b6121d481612bc5565b840191505092915050565b60006121ea82612883565b6121f4818561289f565b93506122048185602086016129f9565b61220d81612bc5565b840191505092915050565b600061222382612883565b61222d81856128b0565b935061223d8185602086016129f9565b80840191505092915050565b600061225660328361289f565b915061226182612bd6565b604082019050919050565b600061227960268361289f565b915061228482612c25565b604082019050919050565b600061229c60258361289f565b91506122a782612c74565b604082019050919050565b60006122bf601c8361289f565b91506122ca82612cc3565b602082019050919050565b60006122e260248361289f565b91506122ed82612cec565b604082019050919050565b600061230560198361289f565b915061231082612d3b565b602082019050919050565b6000612328602c8361289f565b915061233382612d64565b604082019050919050565b600061234b60388361289f565b915061235682612db3565b604082019050919050565b600061236e602a8361289f565b915061237982612e02565b604082019050919050565b600061239160298361289f565b915061239c82612e51565b604082019050919050565b60006123b4602e8361289f565b91506123bf82612ea0565b604082019050919050565b60006123d760208361289f565b91506123e282612eef565b602082019050919050565b60006123fa602c8361289f565b915061240582612f18565b604082019050919050565b600061241d60208361289f565b915061242882612f67565b602082019050919050565b6000612440602f8361289f565b915061244b82612f90565b604082019050919050565b600061246360218361289f565b915061246e82612fdf565b604082019050919050565b600061248660318361289f565b91506124918261302e565b604082019050919050565b60006124a9602b8361289f565b91506124b48261307d565b604082019050919050565b6124c8816129e0565b82525050565b60006124da8285612218565b91506124e68284612218565b91508190509392505050565b60006020820190506125076000830184612188565b92915050565b60006080820190506125226000830187612188565b61252f6020830186612188565b61253c60408301856124bf565b818103606083015261254e81846121a6565b905095945050505050565b600060208201905061256e6000830184612197565b92915050565b6000602082019050818103600083015261258e81846121df565b905092915050565b600060208201905081810360008301526125af81612249565b9050919050565b600060208201905081810360008301526125cf8161226c565b9050919050565b600060208201905081810360008301526125ef8161228f565b9050919050565b6000602082019050818103600083015261260f816122b2565b9050919050565b6000602082019050818103600083015261262f816122d5565b9050919050565b6000602082019050818103600083015261264f816122f8565b9050919050565b6000602082019050818103600083015261266f8161231b565b9050919050565b6000602082019050818103600083015261268f8161233e565b9050919050565b600060208201905081810360008301526126af81612361565b9050919050565b600060208201905081810360008301526126cf81612384565b9050919050565b600060208201905081810360008301526126ef816123a7565b9050919050565b6000602082019050818103600083015261270f816123ca565b9050919050565b6000602082019050818103600083015261272f816123ed565b9050919050565b6000602082019050818103600083015261274f81612410565b9050919050565b6000602082019050818103600083015261276f81612433565b9050919050565b6000602082019050818103600083015261278f81612456565b9050919050565b600060208201905081810360008301526127af81612479565b9050919050565b600060208201905081810360008301526127cf8161249c565b9050919050565b60006020820190506127eb60008301846124bf565b92915050565b60006127fb61280c565b90506128078282612a5e565b919050565b6000604051905090565b600067ffffffffffffffff82111561283157612830612b96565b5b61283a82612bc5565b9050602081019050919050565b600067ffffffffffffffff82111561286257612861612b96565b5b61286b82612bc5565b9050602081019050919050565b600081519050919050565b600081519050919050565b600082825260208201905092915050565b600082825260208201905092915050565b600081905092915050565b60006128c6826129e0565b91506128d1836129e0565b9250827fffffffffffffffffffffffffffffffffffffffffffffffffffffffffffffffff0382111561290657612905612b09565b5b828201905092915050565b600061291c826129e0565b9150612927836129e0565b92508261293757612936612b38565b5b828204905092915050565b600061294d826129e0565b9150612958836129e0565b92508282101561296b5761296a612b09565b5b828203905092915050565b6000612981826129c0565b9050919050565b60008115159050919050565b60007fffffffff0000000000000000000000000000000000000000000000000000000082169050919050565b600073ffffffffffffffffffffffffffffffffffffffff82169050919050565b6000819050919050565b82818337600083830152505050565b60005b83811015612a175780820151818401526020810190506129fc565b83811115612a26576000848401525b50505050565b60006002820490506001821680612a4457607f821691505b60208210811415612a5857612a57612b67565b5b50919050565b612a6782612bc5565b810181811067ffffffffffffffff82111715612a8657612a85612b96565b5b80604052505050565b6000612a9a826129e0565b91507fffffffffffffffffffffffffffffffffffffffffffffffffffffffffffffffff821415612acd57612acc612b09565b5b600182019050919050565b6000612ae3826129e0565b9150612aee836129e0565b925082612afe57612afd612b38565b5b828206905092915050565b7f4e487b7100000000000000000000000000000000000000000000000000000000600052601160045260246000fd5b7f4e487b7100000000000000000000000000000000000000000000000000000000600052601260045260246000fd5b7f4e487b7100000000000000000000000000000000000000000000000000000000600052602260045260246000fd5b7f4e487b7100000000000000000000000000000000000000000000000000000000600052604160045260246000fd5b6000601f19601f8301169050919050565b7f4552433732313a207472616e7366657220746f206e6f6e20455243373231526560008201527f63656976657220696d706c656d656e7465720000000000000000000000000000602082015250565b7f4f776e61626c653a206e6577206f776e657220697320746865207a65726f206160008201527f6464726573730000000000000000000000000000000000000000000000000000602082015250565b7f4552433732313a207472616e736665722066726f6d20696e636f72726563742060008201527f6f776e6572000000000000000000000000000000000000000000000000000000602082015250565b7f4552433732313a20746f6b656e20616c7265616479206d696e74656400000000600082015250565b7f4552433732313a207472616e7366657220746f20746865207a65726f2061646460008201527f7265737300000000000000000000000000000000000000000000000000000000602082015250565b7f4552433732313a20617070726f766520746f2063616c6c657200000000000000600082015250565b7f4552433732313a206f70657261746f7220717565727920666f72206e6f6e657860008201527f697374656e7420746f6b656e0000000000000000000000000000000000000000602082015250565b7f4552433732313a20617070726f76652063616c6c6572206973206e6f74206f7760008201527f6e6572206e6f7220617070726f76656420666f7220616c6c0000000000000000602082015250565b7f4552433732313a2062616c616e636520717565727920666f7220746865207a6560008201527f726f206164647265737300000000000000000000000000000000000000000000602082015250565b7f4552433732313a206f776e657220717565727920666f72206e6f6e657869737460008201527f656e7420746f6b656e0000000000000000000000000000000000000000000000602082015250565b7f496e697469616c697a61626c653a20636f6e747261637420697320616c72656160008201527f647920696e697469616c697a6564000000000000000000000000000000000000602082015250565b7f4552433732313a206d696e7420746f20746865207a65726f2061646472657373600082015250565b7f4552433732313a20617070726f76656420717565727920666f72206e6f6e657860008201527f697374656e7420746f6b656e0000000000000000000000000000000000000000602082015250565b7f4f776e61626c653a2063616c6c6572206973206e6f7420746865206f776e6572600082015250565b7f4552433732314d657461646174613a2055524920717565727920666f72206e6f60008201527f6e6578697374656e7420746f6b656e0000000000000000000000000000000000602082015250565b7f4552433732313a20617070726f76616c20746f2063757272656e74206f776e6560008201527f7200000000000000000000000000000000000000000000000000000000000000602082015250565b7f4552433732313a207472616e736665722063616c6c6572206973206e6f74206f60008201527f776e6572206e6f7220617070726f766564000000000000000000000000000000602082015250565b7f496e697469616c697a61626c653a20636f6e7472616374206973206e6f74206960008201527f6e697469616c697a696e67000000000000000000000000000000000000000000602082015250565b6130d581612976565b81146130e057600080fd5b50565b6130ec81612988565b81146130f757600080fd5b50565b61310381612994565b811461310e57600080fd5b50565b61311a816129e0565b811461312557600080fd5b5056fe68747470733a2f2f6d657461646174612e6f7665726c656167756576312e636f6d2fa264697066735822122095ce012491ba7000dcc334d8a7b532ebd588b645a037ab2702c1a90edb5d0c8e64736f6c63430008020033",
  "linkReferences": {},
  "deployedLinkReferences": {}
}